:020000020000FC
:040000000C94270035
:10004C00D4C004E00EBF0FE50DBF0FEF07BB04BB20
:10005C0001BB00E008BB05BB02BB0ABB0FEF0BBB2F
:10006C0078940CE70CBF03E008BF02E009BF00E086
:10007C0002BF002711E02227442755276627CB9B78
:10008C0001C0FDCFB9D0CB9BFECFB6D000E002BFF4
:10009C000AE003BF00C05527662711E000C0663197
:1000AC0041F018BBB4D0110F103109F0F8CF11E0AA
:1000BC00F6CF002708BBC89B03C0C89903C0F9CF73
:1000CC0021E002C020E000C0002708BB55276627AE
:1000DC0018E000C0693141F015BB99D0169510306D
:1000EC0009F0F8CF18E0F6CF002705BB5527662797
:1000FC0018E000C06A3041F018BB89D0169510305A
:10010C0009F0F8CF18E0F6CF002708BB203011F02B
:10011C00213071F05527662718E000C06233B1F02A
:10012C0012BB75D01695103009F0F8CF18E0F6CF49
:10013C005527662711E000C0623341F012BB67D02F
:10014C00110F103109F0F8CF11E0F6CF002702BBE8
:10015C005527662711E000C0643141F015BB57D01C
:10016C00110F103109F0F8CF11E0F6CF002705BBC5
:10017C005527662718E000C06C3041F018BB47D0FB
:10018C001695103009F0F8CF18E0F6CF002708BB11
:10019C00203011F0213071F05527662711E000C096
:1001AC006233B1F012BB33D0110F103109F0F8CF1C
:1001BC0011E0F6CF5527662718E000C0623341F0F6
:1001CC0012BB25D01695103009F0F8CF18E0F6CFF9
:1001DC00002711E0222744275527662700E002BF9D
:1001EC0003BF08BB05BB02BB4ACF5395543609F07D
:1001FC001895552763951895D1EEECEEEA95F1F725
:10020C00DA95D9F7D8E0DA95F1F700000895D1E244
:0E021C00E4E6EA95F1F7DA95D9F700000895C7
:00000001FF
